:10000000F5C0000021C100001FC100001DC100009B
:100010001BC1000019C1000017C1000015C100007C
:1000200013C1000011C100000FC100000DC100008C
:100030000BC1000009C1000007C1000005C100009C
:1000400003C1000001C10000FFC00000FDC00000AE
:10005000FBC00000F9C00000F7C0000014C500009C
:10006000F3C00000F1C00000EFC00000EDC00000D0
:10007000EBC00000E9C00000E7C00000E5C00000E0
:10008000E3C00000E1C00000DFC00000DDC00000F0
:10009000DBC00000D9C00000D7C000003EC5000092
:1000A000D3C00000D1C00000CFC00000CDC0000010
:1000B000CBC00000C9C00000C7C00000C5C0000020
:1000C000C3C00000C1C00000BFC00000BDC0000030
:1000D000BBC00000B9C00000B7C00000B5C0000040
:1000E000B3C0000000000A0B02090C0D0E08070344
:1000F00004010000000000000000000000000000FB
:1001000000000000000000000000000000000000EF
:1001100012111000000000000000000000000000AC
:100120000000000000000000000000002200250088
:1001300028002B002E0031003400020100000501D0
:1001400008010B0100002100240027002A002D00D7
:100150003000330001010000040107010A01050518
:100160000505070508080808020202020A0A08082D
:10017000040404040101010101010101030303035B
:1001800003030303040707070C0C0C0C0C0C0C0CEA
:100190000202020206060606060606060B0B0B0BFB
:1001A0000B0B0B0B01021020200808102040102020
:1001B000408002010201080402010102040810202B
:1001C0004080804020100804020180040201804029
:1001D0002010080402010804020101020408102092
:1001E00040800102040810204080AC0611241FBE8C
:1001F000CFEFD1E2DEBFCDBF00E00CBF12E0A0E048
:10020000B2E0E4E1FFE000E00BBF02C007900D9216
:10021000AE31B107D9F723E0AEE1B2E001C01D92E3
:10022000AF34B207E1F710E0C6EFD0E000E005C060
:1002300021970109802FFE0163D6C53FD10780E0D9
:100240000807B1F7E3D564C6DBCE982F2091D6021C
:1002500081E0213208F043C08091B2028111FCCFCD
:100260008091D50232E03093B2029093B1029FEFB9
:100270009093B0021092AF022093AE02A5EBB2E0D1
:10028000EEE8F2E090E0291331C010928D029091D7
:100290008D02880F892B80938D0280918C02813092
:1002A00049F510928C0280918D028093BB00809161
:1002B000BC0083FDF8CF85EC8093BC008091B20236
:1002C0008230E1F38091B0028F3FB1F08091B002B3
:1002D0008032A1F08091B002803391F084E01092DE
:1002E000B4021092D6021092B30208953D91319358
:1002F0009F5FC9CF85EEE0CF80E0F1CF82E0EFCF06
:1003000083E0EDCF90E0FC01EC55FE4F2491825A42
:100310009E4FFC018491882399F090E0880F991FEB
:10032000FC01EC5BFE4FA591B491FC01E65DFE4F34
:10033000859194918FB7F894EC91E22BEC938FBF59
:100340000895AF92BF92CF92DF92EF92FF920F93F8
:100350001F93CF93DF936C017B018B01040F151F5B
:10036000EB015E01AE18BF08C017D10759F06991C3
:10037000D601ED91FC910190F081E02DC601199517
:10038000892B79F7C501DF91CF911F910F91FF90D4
:10039000EF90DF90CF90BF90AF900895282F30E07E
:1003A000F901EC51FF4F9491F901EC55FE4F449146
:1003B000225A3E4FF9012491222309F434C0992393
:1003C00009F191509231F0F4E92FF0E08827E551DE
:1003D000FE4F8F4F95C51C022002FD01140218022A
:1003E0000202230229022D02330237023B0241029C
:1003F0004502020249024F025302809180008F772A
:1004000080938000E22FF0E0EE0FFF1FE65DFE4FCD
:10041000A591B4918FB7F894EC91611148C04095C3
:100420004E234C938FBF0895809180008F7DE8CF3D
:1004300080918000877FE4CF84B58F7784BDE2CF41
:1004400084B58F7DFBCF8091B0008F778093B00013
:10045000D9CF8091B0008F7DF9CF809190008F77B8
:1004600080939000CFCF809190008F7DF9CF8091C5
:100470009000877FF5CF8091A0008F778093A000B8
:10048000C1CF8091A0008F7DF9CF8091A000877FA0
:10049000F5CF809120018F7780932001B3CF809199
:1004A00020018F7DF9CF80912001877FF5CF4E2BE2
:1004B000B8CF089585ED8093BC008091BC0084FD89
:1004C000FCCF1092B202089520913E02260F3327EE
:1004D000331F21323105ECF42091B202FC0190E08F
:1004E00080E0243069F082E00895A0913E022191DD
:1004F000AC01425E5D4FA40FB52FB11D2C93019648
:10050000861798F380913E02680F60933E0280E068
:10051000089581E008950895E0916202809161025A
:10052000E81730F4F0E0ED59FD4F808190E0089538
:100530008FEF9FEF089590916202809161022FEFFB
:100540003FEF981748F4E92FF0E0ED59FD4F208177
:1005500030E09F5F90936202C9010895809161022B
:1005600090916202891B990B0895CF92DF92EF92CE
:10057000FF920F931F93CF93DF937C01CB018A01EE
:100580002091B302222389F0EB016B01C40ED51E2A
:10059000CC15DD0561F06991D701ED91FC910190D9
:1005A000F081E02DC7011995F3CF642F8DDFC801CD
:1005B000DF91CF911F910F91FF90EF90DF90CF903F
:1005C0000895CF93DF931F92CDB7DEB76983209153
:1005D000B3022223F9F02091D602203258F021E014
:1005E00030E0FC013383228390E080E00F90DF91C4
:1005F000CF9108958091B402E82FF0E0EB54FD4FC5
:10060000998190838F5F8093B4028093D60281E0BA
:1006100090E0ECCF61E0CE01019656DFF8CFCF93AA
:10062000C42FFC018081806291E09093B30280939B
:10063000D5021092B4021092D60287ED92E0C1DF8B
:100640006C2F87ED92E0BDDF81E0CF91FECD90E091
:1006500080E00895CF93DF93EC018881806291E080
:100660009093B3028093D5021092B4021092D602F6
:1006700087ED92E0A6DF81E0E8DD8091B202811192
:10068000FCCF888191E09093B2029093B1022FEF5A
:100690002093B0021092AF021092AE0290938D029E
:1006A00090918D028062880F892B80938D028091BA
:1006B0008C02813049F510928C0280918D028093DA
:1006C000BB008091BC0083FDF8CF85EC8093BC001B
:1006D0008091B2028130E1F38091AF0291E081110B
:1006E00002C09091AF02AEE8B2E0E3E6F2E080E053
:1006F00089130CC0109262028093610287ED92E030
:100700001ADFDF91CF91089585EEE0CF2D912193EF
:100710008F5FEECFCF92DF92EF92FF920F931F93F6
:10072000CF93DF93EC01162F042F898D8F3FF1F0CB
:10073000683008F056C06A9669E0CE018BDF41E070
:1007400050E001C0440F1A95EAF7013061F4482BDC
:1007500069E0CE01DF91CF911F910F91FF90EF9053
:10076000DF90CF905CCF40954823F2CF8D898F3FAB
:10077000A9F1288D81E090E001C0880F6A95EAF721
:10078000413049F5822B888F60E08F8907DEE88C45
:10079000DD88CE8807E010E0F12CB701002E02C002
:1007A000759567950A94E2F761708C2DF7DD61E02D
:1007B0008D2DF4DD60E08D2DF1DD0150110968F71C
:1007C00061E08F89DF91CF911F910F91FF90EF90A2
:1007D000DF90CF90E3CD80958223D5CF642F812FFA
:1007E000F1CFDF91CF911F910F91FF90EF90DF90AC
:1007F000CF900895CF93DF93EC0140E06E818ADFC4
:1008000041E06E81CE0186DF40E06E81CE0182DF65
:100810008BE891E00197F1F7DF91CF9108957F92F6
:100820008F929F92AF92BF92CF92DF92EF92FF9200
:100830000F931F93CF93DF93EC01898D8E01095F96
:100840001F4FC62ED12C8F3F09F45DC07E018AE177
:10085000E80EF11C69E0C701FDDEF80170E060E020
:1008600001E010E091919801092E01C0220F0A9435
:10087000EAF720958223A601062E02C055954795DA
:100880000A94E2F74170552701C0440F9A95EAF7A0
:10089000842B6F5F7F4F6430710521F79E81980133
:1008A00001C0220F9A95EAF7D22ED094D8224D2D6E
:1008B00069E0C701B4DE8E81A80101C0440F8A95AA
:1008C000EAF7D42A4D2D69E0C701A9DE8E8101C067
:1008D000000F8A95EAF70095402F4D2169E0C70186
:1008E0009EDE8BE891E00197F1F7DF91CF911F91A8
:1008F0000F91FF90EF90DF90CF90BF90AF909F90BF
:100900008F907F900895F12CE12C5E01EAE1AE0E0C
:10091000B11C88248394912CF80171908F01898DEA
:100920008F3F99F1F7E0F71568F060E0C50192DEBE
:10093000A40101C0440F7A94EAF74095482360E08F
:10094000C5016DDEA6010E2C02C0559547950A948F
:10095000E2F74170F80131976081CE01DBDE8FEF65
:10096000E81AF80AE4E0EE16F104B1F6CE01DF91E0
:10097000CF911F910F91FF90EF90DF90CF90BF909C
:10098000AF909F908F907F9035CF8D898F3FD1F61C
:10099000872DB8DCD7CF7F928F929F92AF92BF9274
:1009A000CF92DF92EF92FF920F931F93CF93DF933B
:1009B000EC01F62E41E06C81ADDE6D816F3F19F0E8
:1009C00040E0CE01A7DE0F2D10E08F8584FF4FC0E1
:1009D0006E0187E0C80ED11CF12CE12C5E01EAE12A
:1009E000AE0EB11C88248394912CF60171906F0196
:1009F000898D8F3FB1F1F7E0F71568F060E0C50130
:100A000029DEA40101C0440F7A94EAF740954823F7
:100A100060E0C50104DEA8010E2C02C05595479583
:100A20000A94E2F74170F60131976081CE0172DEDF
:100A30008FEFE81AF80AE8E0EE16F104B1F6CE01FD
:100A4000D9DE81E090E0DF91CF911F910F91FF906F
:100A5000EF90DF90CF90BF90AF909F908F907F905E
:100A600008958D898F3FB9F6872D4CDCD4CFB8011E
:100A700084E0759567958A95E1F7CE01D0DE6F2DFC
:100A8000CE01CDDEDECF1F920F920FB60F92112452
:100A90002F933F938F939F93AF93BF93809188023F
:100AA00090918902A0918A02B0918B0230918702C5
:100AB00023E0230F2D3758F50196A11DB11D20937A
:100AC00087028093880290938902A0938A02B09350
:100AD0008B028091830290918402A0918502B09153
:100AE00086020196A11DB11D80938302909384021A
:100AF000A0938502B0938602BF91AF919F918F9191
:100B00003F912F910F900FBE0F901F90189526E8E0
:100B1000230F0296A11DB11DD2CF1F920F920FB6C7
:100B20000F9211240BB60F922F933F934F935F9325
:100B30006F937F938F939F93AF93BF93EF93FF93A5
:100B40008091B900887F803609F44CC008F03FC01E
:100B5000883209F4A6C028F5803109F49AC0C8F497
:100B6000882309F4F6C0883009F493C0FF91EF910F
:100B7000BF91AF919F918F917F916F915F914F91B5
:100B80003F912F910F900BBE0F900FBE0F901F90B3
:100B90001895883109F485C0803241F78093B002FE
:100BA00014C0803409F49AC040F48033B9F3883318
:100BB000E9F68093B00285ECADC0803509F482C0BF
:100BC000883509F493C0883489F674DCCFCF88392E
:100BD00009F48AC038F5883729F050F4883611F0C6
:100BE000803721F683E08093B2021092600255C0F4
:100BF000883809F479C0803919F0803809F0B6CF07
:100C000080916002803208F06FC0E091600281E064
:100C10008E0F809360028091BB00F0E0E05CFD4F9E
:100C200080833BC0803B39F0D0F4803A09F477C030
:100C3000883A09F09BCF84E08093B20210923F0281
:100C400010923E02F0E0E0E0199580913E028111A1
:100C50000FC081E080933E0210921E0209C0803CCA
:100C600009F4A9CF883C09F4A6CF883B09F07ECFD0
:100C7000E0913F0281E08E0F80933F02F0E0E25E60
:100C8000FD4F80818093BB0090913F0280913E0296
:100C900029C080918D028093BB0085EC8093BC00BD
:100CA00065CF9091AF028091AE02981758F5E09110
:100CB000AF0281E08E0F8093AF02F0E0E257FD4F6C
:100CC0008081E9CFE091AF0281E08E0F8093AF0287
:100CD0008091BB00F0E0E257FD4F80839091AF021E
:100CE0008091AE029817C8F285E8D8CFE091AF02A4
:100CF00081E08E0F8093AF028091BB00F0E0E2575D
:100D0000FD4F80838091B10281115FCF81E080939C
:100D10008C0284EA8093BC001092B20227CF85EC4B
:100D20008093BC001092B20280916002803230F455
:100D3000E0916002F0E0E05CFD4F108260916002A3
:100D400070E080E492E0F0E0E0E01995109260023B
:100D50000DCF1092B00239CFE7EDF2E0138212828C
:100D600088EE93E0A0E0B0E084839583A683B78308
:100D700084E092E091838083E4E3F3E013821282C3
:100D8000A6E1B2E0B183A08382E7818F178661E09C
:100D900064835FEF558342E0468333E0378324E08A
:100DA000208795E0918786E08287E9E1F3E013826E
:100DB0001282B183A08373E7718F17866483558392
:100DC00046833783208791878287EEEFF2E0138294
:100DD0001282B183A08375E7718F17866483558370
:100DE00046833783208791878287E3EEF2E0138280
:100DF0001282B183A08370E7718F17866483558355
:100E0000468337832087918782870895789484B5B5
:100E1000826084BD84B5816084BD85B5826085BDF6
:100E200085B5816085BD80916E00816080936E0084
:100E30001092810080918100826080938100809176
:100E40008100816080938100809180008160809327
:100E500080008091B10084608093B1008091B000E7
:100E600081608093B00080919100826080939100B6
:100E700080919100816080939100809190008160C9
:100E8000809390008091A10082608093A100809166
:100E9000A10081608093A1008091A0008160809377
:100EA000A000809121018260809321018091210125
:100EB00081608093210180912001816080932001D5
:100EC00080917A00846080937A0080917A008260B9
:100ED00080937A0080917A00816080937A0080917B
:100EE0007A00806880937A001092C100C0E0D0E060
:100EF00060E086E153DA2097D9F30E940000F8CF32
:100F0000EE0FFF1F881F8BBF0790F691E02D1994FD
:040F1000F894FFCF83
:100F140000000000E102B50227038B02AE029B022F
:0E0F24008C0200000000CB04A101270359023B
:00000001FF
